1000000000000000000000000000000000000000063104499960003315709000108150102110700000034100107042021207031207000000341000000000000000000XXXXXXXXXXXXXXX     0000000000000000000000000000000                 03315709000      5814      1101       2630000000000316500-01-3100           51 W52ND ST 29TH FL NEW YORK          NY10019                        0WACHTELL ET AL      STARBUCKS USA 076737 NEW YORK           NYREF# 033157090   1-800-STARBUC    02/11/07                                                                                    050524853   000000000000000000
1000000000000000000000000000000000000000063167305480082596008100108150102110700000396000107042021207031207000003960000000000000000000XXXXXXXXXXXXXXX     0000000000000000000000000000000                 82596008100      2711      1101       2630000000000316500-01-3100           51 W52ND ST 29TH FL NEW YORK          NY10019                        0WACHTELL ET AL      NEW YORK TIMES       NEW YORK           NYREF# 825960081   NY TIMES 021107  02/11/07                                                                                    060821889   000000000000000000
1000000000000000000000000000000000000000022907241940000811731700108150102150700000034100107046021607031207000000341000000000000000000XXXXXXXXXXXXXXX     0000000000000000000000000000000                 00811731700      5814      1101       2630000000000316500-01-3100           51 W52ND ST 29TH FL NEW YORK          NY10019                        0WACHTELL ET AL      STARBUCKS USA 027847 MANHATTAN          NYREF# 008117317   1-800-STARBUC    02/15/07                                                                                    050661405   000000000000000000
1000000000000000000000000000000000000000079924030890012159615470108160102150700006386000107047021607031207000063860000000000000000000XXXXXXXXXXXXXXX     0000000000000000000000000000000                 06010010000      4512      1101       2630000000000316500-01-3100           51 W52ND ST 29TH FL NEW YORK          NY10019                        0WACHTELL ET AL      AMERICAN AIRLINES    DALLAS,      TX              AMERICAN AIRLINES        YY      AAAA            LGAMIAFPO                  021507EMMERICH/ADAM MR                    010544065   000000000000000000
1000000000000000000000000000000000000000050406603180000000002195108150102170700000219500107048021707031207000002195000000000000000000XXXXXXXXXXXXXXX     0000000000000000000000000000000                                  4899      1101       2630000000000316500-01-3100           51 W52ND ST 29TH FL NEW YORK          NY10019                        0WACHTELL ET AL      BWI*BOINGO WIRELESS 800-880-4117      CA  T1,9af88, INTERNET ACC            02/17/07                                                                                    TC0018447   000000000000000000
1000000000000000000000000000000000000000054667018360000000005116108150102180700000511600107051022007031207000005116000000000000000000XXXXXXXXXXXXXXX     0000000000000000000000000000000                                  5192      1101       2630000000000316500-01-3100           51 W52ND ST 29TH FL NEW YORK          NY10019                        0WACHTELL ET AL      AMAZON.COM          AMZN.COM/BILL     WA  O1FZXKZZX                   98101 02/18/07                                                                                    060447060   000000000000000000
1000000000000000000000000000000000000000022966173680000000001680108150102190700000168000107050021907031207000001680000000000000000000XXXXXXXXXXXXXXX     0000000000000000000000000000000                                  4813      1101       2630000000000316500-01-3100           51 W52ND ST 29TH FL NEW YORK          NY10019                        0WACHTELL ET AL      ATT SERVICE         800-222-0300      NJ  SA0007750 ATT SVC RAMP            02/19/07                                                                                    TC0045111   000000000000000000
1000000000000000000000000000000000000000044505762360000000001495108150102190700000149500107050021907031207000001495000000000000000000XXXXXXXXXXXXXXX     0000000000000000000000000000000                                  4822      1101       2630000000000316500-01-3100           51 W52ND ST 29TH FL NEW YORK          NY10019                        0WACHTELL ET AL      AOL HIGH SPEED      888-889-7201      NY  0043ec5bd INTERNET SVC            02/19/07                                                                                    TC0213001   000000000000000000
1000000000000000000000000000000000000000063120917130000000049833108150102210700004983300107052022207031207000049833000000000000000000XXXXXXXXXXXXXXX     0000000000000000000000000000000                                  5814      1101       2630000000000316500-01-3100           51 W52ND ST 29TH FL NEW YORK          NY10019                        0WACHTELL ET AL      CAFE GRAY            NEW YORK           NYREF# 00000000000 RESTAURANT       02/21/07                                                                                    050708887   000000000000000000
1000000000000000000000000000000000000000063110332450000093387091108150102220700001784400107054022307031207000017844000000000000000000XXXXXXXXXXXXXXX     0000000000000000000000000000000                 00093387091      5812      1101       2630000000000316500-01-3100           51 W52ND ST 29TH FL NEW YORK          NY10019                        0WACHTELL ET AL      LE BERNARDIN        NEW YORK          NY  093387091 FOOD/BEV                02/22/07                                                                                    050566694   000000000000000000
1000000000000000000000000000000000000000063113385520000000000014108150102220700000748600107053022207031207000007486000000000000000000XXXXXXXXXXXXXXX     0000000000000000000000000000000                 00000000014      5812      1101       2630000000000316500-01-3100           51 W52ND ST 29TH FL NEW YORK          NY10019                        0WACHTELL ET AL      55TH & 5TH LLC NEW YORK NY                000000014 FOOD AND BEVERAGE       02/22/07                                                                                    051264113   000000000000000000
1000000000000000000000000000000000000000014218886450000491017483108150102250700000299500107056022507031207000002995000000000000000000XXXXXXXXXXXXXXX     0000000000000000000000000000000                 00491017483      4816      1101       2630000000000316500-01-3100           51 W52ND ST 29TH FL NEW YORK          NY10019                        0WACHTELL ET AL      WAYPORT.NET INTERNETWAYPORT.NET       TX  491017483 INTERNET                02/25/07                                                                                    TC0020923   000000000000000000
1000000000000000000000000000000000000000044565296920000000001911108149602270700000191100107058022707031207000001911000000000000000000XXXXXXXXXXXXXXX     0000000000000000000000000000000                                  8743      1101       2630000000000316500-01-3100           51 W52ND ST 29TH FL NEW YORK          NY10019                        0WACHTELL ET AL      MCI W 1C187013 FEB07800-4441004       CO  000000                    0000        0000                                                                                    TC1127869   000000000000000000
1000000000000000000000000000000000000000063159362940000015598160108150102270700002436700107059022807031207000024367000000000000000000XXXXXXXXXXXXXXX     0000000000000000000000000000000                 00015598160      4225      1101       2630000000000316500-01-3100           51 W52ND ST 29TH FL NEW YORK          NY10019                        0WACHTELL ET AL      FORTUNOFF #015      800-367-8866      NY  015598160 HOUSEWARES              02/27/07                                                                                    060646158   000000000000000000
1000000000000000000000000000000000000000033475019670022568340000108150102280700241030400107059030107031207002410304000000000000000000XXXXXXXXXXXXXXX     0000000000000000000000000000000                 22568340000      4729      1101       2630000000000316500-01-3100           51 W52ND ST 29TH FL NEW YORK          NY10019                        0WACHTELL ET AL      EXECUTIVE JET MANAGE CINCINNATI         OHREF# 2256834     MISC TRANSPORTAT 02/28/07                                                                                    080826826   000000000000000000
1000000000000000000000000000000000000000063113385520000000000018108150102280700000603900107059022807031207000006039000000000000000000XXXXXXXXXXXXXXX     0000000000000000000000000000000                 00000000018      5812      1101       2630000000000316500-01-3100           51 W52ND ST 29TH FL NEW YORK          NY10019                        0WACHTELL ET AL      55TH & 5TH LLC NEW YORK NY                000000018 FOOD AND BEVERAGE       02/28/07                                                                                    051384705   000000000000000000
1000000000000000000000000000000000000000063113385520000000000019108150103050700000744800107064030507031207000007448000000000000000000XXXXXXXXXXXXXXX     0000000000000000000000000000000                 00000000019      5812      1101       2630000000000316500-01-3100           51 W52ND ST 29TH FL NEW YORK          NY10019                        0WACHTELL ET AL      55TH & 5TH LLC NEW YORK NY                000000019 FOOD AND BEVERAGE       03/05/07                                                                                    050724103   000000000000000000
1000000000000000000000000000000000000000022907241940001011389100108150103070700000040000107066030807031207000000400000000000000000000XXXXXXXXXXXXXXX     0000000000000000000000000000000                 01011389100      5814      1101       2630000000000316500-01-3100           51 W52ND ST 29TH FL NEW YORK          NY10019                        0WACHTELL ET AL      STARBUCKS USA 027847 MANHATTAN          NYREF# 010113891   1-800-STARBUC    03/07/07                                                                                    050835229   000000000000000000
1000000000000000000000000000000000000000022907241940001011778800108150103080700000040000107067030907031207000000400000000000000000000XXXXXXXXXXXXXXX     0000000000000000000000000000000                 01011778800      5814      1101       2630000000000316500-01-3100           51 W52ND ST 29TH FL NEW YORK          NY10019                        0WACHTELL ET AL      STARBUCKS USA 027847 MANHATTAN          NYREF# 010117788   1-800-STARBUC    03/08/07                                                                                    050718272   000000000000000000
1000000000000000000000000000000000000000050487578350000099264743108150103100700001314000107069031007031207000013140000000000000000000XXXXXXXXXXXXXXX     0000000000000000000000000000000                 00099264743      5734      1101       2630000000000316500-01-3100           51 W52ND ST 29TH FL NEW YORK          NY10019                        0WACHTELL ET AL      YAHOO  FINANCE      866-562-7228      CA  99264743  SERVICE                 03/10/07                                                                                    060735311   000000000000000000
1000000000000000000000000000000000000000063123124080057300420000108150103110700012000000107070031207031207000120000000000000000000000XXXXXXXXXXXXXXX     0000000000000000000000000000000                 57300420000      8221      1101       2630000000000316500-01-3100           51 W52ND ST 29TH FL NEW YORK          NY10019                        0WACHTELL ET AL      NEW YORK UNIVERSITY  NEW YORK           NYREF# 57300420    EDUCATIONAL SERV 03/11/07                                                                                    080272136   000000000000000000
1000000000000000000000000000000000000000063167305480082596008100108150103110700000396000107070031207031207000003960000000000000000000XXXXXXXXXXXXXXX     0000000000000000000000000000000                 82596008100      2711      1101       2630000000000316500-01-3100           51 W52ND ST 29TH FL NEW YORK          NY10019                        0WACHTELL ET AL      NEW YORK TIMES       NEW YORK           NYREF# 825960081   NY TIMES 031107  03/11/07                                                                                    060656177   000000000000000000
1000000000000000000000000000000000000000054634091850000000000949108150103120700000094900107071031207031207000000949000000000000000000XXXXXXXXXXXXXXX     0000000000000000000000000000000                                  5192      1101       2630000000000316500-01-3100           51 W52ND ST 29TH FL NEW YORK          NY10019                        0WACHTELL ET AL      AMAZON.COM PAYMENTS AMZN.COM/BILL     WA  EPKF3ND75                   98108 03/12/07                                                                                    060694303   000000000000000000
1000000000000000000000000000000000000000063113385520000000008258108150103120700000825800107071031207031207000008258000000000000000000XXXXXXXXXXXXXXX     0000000000000000000000000000000                                  5812      1101       2630000000000316500-01-3100           51 W52ND ST 29TH FL NEW YORK          NY10019                        0WACHTELL ET AL      MICHAELS             NEW YORK           NYREF# 00000000000 RESTAURANT       03/12/07                                                                                    050272578   000000000000000000
